:1000000000400020F50000007F0100007F0100009B
:100010007F0100007F0100007F0100007F010000E0
:100020007F0100007F0100007F0100007F010000D0
:100030007F0100007F0100007F010000B50100008A
:100040007F0100007F0100007F0100007F010000B0
:100050007F0100007F0100007F0100007F010000A0
:100060007F0100007F0100007F0100007F01000090
:100070007F0100007F0100007F0100007F01000080
:100080007F0100007F0100007F0100007F01000070
:100090007F0100007F0100007F0100007F01000060
:1000A0007F0100007F0100007F0100007F01000050
:1000B0007F0100007F0100007F0100007F01000040
:1000C0007F0100007F0100007F0100007F01000030
:1000D0007F0100007F0100007F0100007F01000020
:1000E0007F0100007F0100007F0100007F01000010
:1000F0007F01000080B584B000AF40F2D823C0F289
:100100000003FB6040F20003C2F20003BB6040F258
:100110000002C2F2000240F20003C2F20003D31A4E
:100120007B6007E0FA68531CFB60BB68591CB96030
:1001300012781A707B685A1E7A60002BF2D140F256
:100140000003C2F20003BB6040F20402C2F20002EC
:1001500040F20003C2F20003D31A7B6004E0BB68E4
:100160005A1CBA6000221A707B685A1E7A60002BF3
:10017000F5D100F035F8C046BD4604B080BD80B56D
:1001800000AFFEE780B500AF4EF21003CEF20003E1
:1001900040F2CF725A604EF21003CEF20003642296
:1001A0009A604EF21003CEF2000307221A60C04696
:1001B000BD4680BD80B500AF40F20003C2F200032F
:1001C0001B685A1C40F20003C2F200031A6043F29B
:1001D0000003C4F200030122DA61C046BD4680BDBF
:1001E00080B500AF72B6FFF7CDFF43F20003C4F253
:1001F000000301229A6062B630BFFDE74743433AED
:100200002028474E5520546F6F6C7320666F722004
:1002100041726D20456D6265646465642050726F43
:10022000636573736F727320392D323031392D71DC
:10023000342D6D616A6F722920392E322E312032B1
:1002400030313931303235202872656C6561736523
:1002500029205B41524D2F61726D2D392D627261E3
:100260006E6368207265766973696F6E2032373706
:100270003539395D00412F00000061656162690018
:10028000012500000005382D4D2E42415345000642
:1002900010074D0903120414011501170318011961
:1002A000011A011E06412F000000616561626900AC
:1002B000012500000005382D4D2E42415345000612
:1002C00010074D0903120414011501170318011931
:0802D000011A011E06000000E6
:00000001FF
