:1000000000400020F50000007F0100007F0100009B
:100010007F0100007F0100007F0100007F010000E0
:100020007F0100007F0100007F0100007F010000D0
:100030007F0100007F0100007F0100007F010000C0
:100040007F0100007F0100007F0100007F010000B0
:100050007F0100007F0100007F0100007F010000A0
:100060007F0100007F0100007F0100007F01000090
:100070007F0100007F0100007F0100007F01000080
:100080007F0100007F0100007F0100007F01000070
:100090007F0100007F0100007F0100007F01000060
:1000A0007F0100007F0100007F0100007F01000050
:1000B0007F0100007F0100007F0100007F01000040
:1000C0007F0100007F0100007F0100007F01000030
:1000D0007F0100007F0100007F0100007F01000020
:1000E0007F0100007F0100007F0100007F01000010
:1000F0007F01000080B584B000AF40F2A823C0F2B9
:100100000003FB6040F20003C2F20003BB6040F258
:100110000002C2F2000240F20003C2F20003D31A4E
:100120007B6007E0FA68531CFB60BB68591CB96030
:1001300012781A707B685A1E7A60002BF2D140F256
:100140000003C2F20003BB6040F20002C2F20002F0
:1001500040F20003C2F20003D31A7B6004E0BB68E4
:100160005A1CBA6000221A707B685A1E7A60002BF3
:10017000F5D100F016F8C046BD4604B080BD80B58C
:1001800000AFFEE780B582B000AF7860C0467B6804
:100190005A1E7A60002BFAD1C046C046BD4602B056
:1001A00080BD80B500AF43F20003C4F2000301221A
:1001B0009A6043F20003C4F200030122DA6148F2BC
:1001C000A063C0F201031800FFF7DCFFF1E747432B
:1001D000433A2028474E5520546F6F6C7320666F4A
:1001E000722041726D20456D6265646465642050C3
:1001F000726F636573736F727320392D32303139CA
:100200002D71342D6D616A6F722920392E322E3195
:10021000203230313931303235202872656C6561D9
:10022000736529205B41524D2F61726D2D392D620E
:1002300072616E6368207265766973696F6E2032D1
:1002400037373539395D00412F0000006165616243
:100250006900012500000005382D4D2E424153450F
:10026000000610074D0903120414011501170318A5
:100270000119011A011E06412F000000616561622B
:100280006900012500000005382D4D2E42415345DF
:10029000000610074D090312041401150117031875
:0802A0000119011A011E0600FC
:00000001FF
