:1000000000400020F50000006901000069010000C7
:100010006901000069010000690100006901000038
:100020006901000069010000690100006901000028
:100030006901000069010000690100006901000018
:100040006901000069010000690100006901000008
:1000500069010000690100006901000069010000F8
:1000600069010000690100006901000069010000E8
:1000700069010000690100006901000069010000D8
:1000800069010000690100006901000069010000C8
:1000900069010000690100006901000069010000B8
:1000A00069010000690100006901000069010000A8
:1000B0006901000069010000690100006901000098
:1000C0006901000069010000690100006901000088
:1000D0006901000069010000690100006901000078
:1000E0006901000069010000690100006901000068
:1000F0006901000080B584B000AF164BFB60164B61
:10010000BB60164A144BD31A7B6007E0FA68531C95
:10011000FB60BB68591CB96012781A707B685A1E64
:100120007A60002BF2D10E4BBB600E4A0C4BD31AF7
:100130007B6004E0BB685A1CBA6000221A707B68BE
:100140005A1E7A60002BF5D100F021F8C046BD465A
:1001500004B080BD840200000000002000000020E8
:10016000000000200000002080B500AFFEE7C04680
:1001700080B582B000AF7860C0467B685A1E7A6056
:10018000002BFAD1C046C046BD4602B080BD80B546
:1001900000AF054B01229A60034B0122DA61034B49
:1001A0001800FFF7E5FFF7E700300040A0860100E8
:1001B0004743433A2028474E5520546F6F6C7320B5
:1001C000666F722041726D20456D6265646465647E
:1001D0002050726F636573736F727320392D3230E4
:1001E00031392D71342D6D616A6F722920392E32AB
:1001F0002E31203230313931303235202872656C61
:100200006561736529205B41524D2F61726D2D39F7
:100210002D6272616E6368207265766973696F6EB4
:10022000203237373539395D00412B0000006165D8
:100230006162690001210000000536532D4D000662
:100240000C074D09011204140115011703180119B7
:10025000011A011E06412B00000061656162690000
:1002600001210000000536532D4D00060C074D09F5
:10027000011204140115011703180119011A011EB6
:040280000600000074
:00000001FF
